:020000040800F2
:10000000D008002039020008571800087B160008A5
:100010005518000825040008C11B00080000000056
:100020000000000000000000000000007B18000835
:100030002704000800000000791800089118000843
:10004000530200085302000853020008530200083C
:10005000530200085302000853020008530200082C
:10006000530200085302000853020008530200081C
:10007000530200085302000853020008530200080C
:100080005302000853020008530200080000000059
:100090000000000000000000000000005302000803
:1000A00053020008251900085302000853020008F3
:1000B00053020008530200085302000853020008CC
:1000C00053020008530200085302000853020008BC
:1000D00053020008951B00085302000800000000AE
:1000E00053020008530200085302000800000000F9
:1000F00000000000000000000000000053020008A3
:1001000000000000530200085302000853020008D8
:1001100000000000000000000000000000000000DF
:10012000530200085302000853020008530200085B
:100130005302000800000000000000000000000062
:100140000000000000000000000000005302000852
:10015000530200085302000853020008530200082B
:1001600053020008530200080000000000000000D5
:10017000000000000000000000000000000000007F
:100180000000000053020008000000000000000012
:10019000530200085302000800F002F800F03CF897
:1001A0000AA090E8000C82448344AAF10107DA45D2
:1001B00001D100F031F8AFF2090EBAE80F0013F0E8
:1001C000010F18BFFB1A43F001031847601A000023
:1001D000801A0000103A24BF78C878C1FAD85207B4
:1001E00024BF30C830C144BF04680C6070470000B1
:1001F0000023002400250026103A28BF78C1FBD830
:10020000520728BF30C148BF0B6070471FB501F0CF
:10021000FBFC1FBD10B510BD00F0D6F81146FFF76E
:10022000F5FF01F0CFFC00F0F4F803B4FFF7F2FFA4
:1002300003BC01F0C6FC000009488047094800479C
:10024000FEE7FEE7FEE7FEE7FEE7FEE7FEE7FEE786
:10025000FEE7FEE704480549054A064B70470000E3
:100260001519000899010008D0020020D0080020CC
:10027000D0040020D0040020704753EA020C00F0A4
:1002800069802DE9F04B4FF00006002B1FBFB3FA39
:1002900083F503FA05F424FA05F65E4012BF16430F
:1002A000B2FA82F502FA05F4C5F120051EBF22FA62
:1002B00005FC44EA0C04203556EA044C4FEA144489
:1002C00018BF641C4FF000084FF00009904271EB1A
:1002D000030C39D3002919BFB1FA81F701FA07F6E7
:1002E000B0FA80F700FA07F6C7F120071EBF20FA20
:1002F00007FC46EA0C062037B6FBF4FCA7EB050723
:10030000103F07F01F0BCBF120060CFA0BFB2CFA69
:1003100006F644BFB3460026202FA4BF5E464FF02A
:10032000000B5BEA060C08BF4FF0010B19EB0B0941
:10033000ABFB027C48EB0608C01B06FB02CC0BFBA8
:1003400003CC71EB0C01C1E70B460246414648461F
:10035000BDE8F08B13B54FF000004FF00001AFF394
:100360000080BDE81C4070474FF0000200B5134606
:1003700094469646203922BFA0E80C50A0E80C50C5
:10038000B1F12001BFF4F7AF090728BFA0E80C5076
:1003900048BF0CC05DF804EB890028BF40F8042B6F
:1003A00008BF704748BF20F8022B11F0804F18BFDC
:1003B00000F8012B70477047704770477047000086
:1003C00000487047700200207546FFF7F9FFAE46FF
:1003D00005006946534620F00700854618B020B551
:1003E000FFF738FFBDE820404FF000064FF0000750
:1003F0004FF000084FF0000B21F00701AC46ACE8CD
:10040000C009ACE8C009ACE8C009ACE8C0098D4639
:10041000704710B50446AFF300802046BDE8104099
:10042000FFF703BFFEE770472DE9F0410446876DF3
:1004300000F066F9064694F835000025022806D03B
:100440008020606584F834500120BDE8F081206888
:10045000016821F0160101602068416921F08001E6
:100460004161206C08B9A06C20B12068016821F0BE
:10047000080101602068016821F0010101600CE0C1
:1004800000F03EF9801B052807D920206065032075
:1004900084F8350084F83450D7E720680068C00736
:1004A000EED194F85C103F208840B860012084F8B9
:1004B000350084F834500020C7E790F83510022941
:1004C00003D08021416501207047052180F8351057
:1004D0000068016821F00101016000207047000000
:1004E00070B5044600F00CF90546601C02D00448C3
:1004F0000078044400F004F9401BA042FAD370BD18
:10050000040000202DE9F84FDFF8B8A100220124F3
:100510000AF1040B03254FF00F090BF1040E00BF85
:100520000B6804FA02F63340B34273D10F7907F037
:100530000307012F01D0022F16D187684FEA420826
:1005400005FA08FC27EA0C07D1F80CC00CFA08FCE5
:100550004CEA070CC0F808C04768B7430E79C6F3E9
:10056000001696403E4346600E79F643B6070DD01E
:10057000C768560005FA06FC27EA0C07D1F808C040
:100580000CFA06FC4CEA070CC0F80CC00E7906F019
:100590000306022E10D1D60800EB8608D8F820609A
:1005A00057074FEAD76C09FA0CF7BE430F6907FAF1
:1005B0000CF73743C8F8207006684FEA420C05FA7A
:1005C0000CF7BE430F7907F0030707FA0CF7374320
:1005D00007604E6816F4403F6DD03B4E376847F4D5
:1005E00080473760366822F0030706F4804600969D
:1005F000364E07EB060CDCF8086897073F0F09FA40
:1006000007F826EA0806DFF8C880404503D14FF016
:1006100000081EE04FE0DFF8BC80404502D14FF0FB
:10062000010816E0DFF8B080404502D14FF0020823
:100630000FE0DFF8A880404502D14FF0030808E042
:10064000DFF89C80404502D14FF0040801E04FF0F4
:10065000070808FA07F848EA0608CCF80888DAF824
:1006600000605746D1F804C09E435FEACC3C00D5F9
:100670001E433E60DBF800605F46D1F804C09E4335
:100680005FEA8C3C00D51E433E60DEF80060774692
:10069000D1F804C09E435FEACC2C00D51E433E60D7
:1006A000084F0C373E68D1F804C09E435FEA8C2C9B
:1006B00000D51E433E60521C102AFFF431AFBDE846
:1006C000F88F0000003C01404438024000300140F7
:1006D000000002400004024000080240000C0240FA
:1006E00000100240426921EA02030A4043EA024143
:1006F000816170470AB1816170470904FBE700001E
:1007000001488068704700000400002070B50400B4
:1007100025D094F83D00002520B984F83C502046AF
:1007200000F0B8F8242084F83D002068016821F02A
:10073000010101602068016841F400410160206806
:10074000016821F40041016000F00AFA4D4A616835
:10075000914201D84C4900E04C49884201D2012025
:1007600070BD4B492368B0FBF1F15E6826F03F068F
:100770000E435E606368934206D94FF49673594303
:100780004FF47A73B1FBF3F12368491C1E6A26F01B
:100790003F06314319626168914210D84900401EFA
:1007A000B0FBF1F2521CC2F30B02042A01D2042066
:1007B00022E0B0FBF1F0401CC0F30B001CE0A2688B
:1007C000F2B301EBC10303EB0116431EB3FBF6F3D7
:1007D0005B1C43F480431B0549D092B301EBC1027B
:1007E00002EB0111401EB0FBF1F0401CC0F30B0006
:1007F00040F4804040F400402168CA694CF6FF7321
:100800009A431043C861D4E9071001432068026885
:1008100022F0C00211430160D4E9030101432068C2
:10082000826848F2FF339A4311438160D4E905019D
:1008300008432168CA6822F0FF021043C86001E043
:100840000EE016E02068016841F0010101602564B6
:10085000202084F83D00256384F83E50002070BDC0
:1008600001EB4106431EB3FBF6F35B1CB3E701202B
:10087000C2E701EB4101401EB0FBF1F0401CC0F3A8
:100880000B00B7E7A086010080841E0000093D0030
:1008900040420F0010B586B0044614216846FFF7A9
:1008A00063FD13492068884220D112480021026864
:1008B00042F002020260006800F002000590C020D1
:1008C00000901220CDE90101032003900420049040
:1008D00069460948FFF716FE06481030016841F4E2
:1008E00000110160006800F40010059006B010BD12
:1008F0000054004030380240000402400248816841
:100900000278114481607047040000200B4810B544
:10091000016841F400710160016841F48061016087
:10092000016841F480710160032000F06DF80F2030
:1009300000F006F800F024F8002010BD003C024052
:1009400070B50D4D04464FF47A712878B1FBF0F084
:100950000A490968B1FBF0F000F0CCFB48B9102C53
:1009600007D200222146501E00F02EF800206C60B5
:1009700070BD012070BD00000400002000000020B8
:100980000A4808B5016841F480410160006800F43C
:10099000804000900548001F016841F080510160CF
:1009A000006800F08050009008BD0000443802400C
:1009B00000F01F02012191404009800000F1E02079
:1009C000C0F8001170470000F0B40E4B1B680C46D5
:1009D000C3F30223C3F10705042D00D90425191D13
:1009E000072901D2002300E0DB1E012606FA05F1EB
:1009F000491E214099409E40761E16403143F0BC6E
:100A000000F02ABF0CED00E0064900F0070208687C
:100A10004FF6FF03184040EA0220034A10430860E3
:100A2000704700000CED00E00000FA052DE9F047EA
:100A30000E46050065D0DFF81481D8F80000F7B243
:100A400000F00700B04207D288F80070D8F8000024
:100A500000F00700B04254D128683D4C810712D500
:100A6000400703D5206840F4E05020602878000754
:100A700003D5206840F4604020602068A96820F019
:100A8000F000084320602878C0072DD030496868FE
:100A90000839012812D0022813D0032811D0096880
:100AA000890700292DDA216821F003010143216023
:100AB000FFF726FE814641F2883A0EE00968890375
:100AC000EFE709688901ECE7FFF71AFEA0EB0901DF
:100AD000514502D90320BDE8F0872068696800F01D
:100AE0000C00B0EB810FEFD1D8F80010404601F0B8
:100AF0000701B14207D90770006800F00700B04253
:100B000001D00120E7E72878400705D52068E9688B
:100B100020F4E050084320602878000706D52068BC
:100B2000296920F4604040EAC100206000F038F8F4
:100B30002168084AC1F30311515CC84006490860A6
:100B400006480068FFF7FCFE0020C4E7003C0240B6
:100B500008380240121C0008000000200800002095
:100B60000448054900680968044AC1F38221515CC0
:100B7000C84070470000002008380240221C0008CE
:100B80000448054900680968044AC1F34231515CD0
:100B9000C84070470000002008380240221C0008AE
:100BA000154810B5006810F00C02144813D0144911
:100BB000042A0FD0082A0ED10F4C241F2268236864
:100BC00002F03F025B0207D52068C0F38810A0FB4B
:100BD000010106E0084610BD2168C1F38811A1FBA0
:100BE00000010023FFF749FB2168C1F30141491CC3
:100BF0004900B0FBF1F010BD083802400024F400B9
:100C000040787D012DE9F84F04006ED02078DFF8A0
:100C10004C93C007A9F104054AD009F1040001680A
:100C2000C1F38101012908D00068C0F381000228C6
:100C30000AD1D9F80000400206D52868800337D5CC
:100C400060680028E1D033E06068B0F5803F10D0E4
:100C5000B0F5A02F286810D020F4803028602868D4
:100C600020F4802028606068A8B1FFF749FD06469F
:100C70000DE0286840F48030F4E740F480202860DC
:100C8000F7E700BFFFF73CFD801B642873D8286896
:100C90008003F7D50CE0FFF733FD064605E000BF03
:100CA000FFF72EFD801B6428F0D828688003F7D456
:100CB0002078DFF8AC8280074FF0000A3ED5A748C5
:100CC000001D016811F00C0F08D00068C0F381000E
:100CD00002280BD1D9F80000400207D42868800709
:100CE00016D5E068012800D112E033E1E068B8B120
:100CF0000120C8F80000FFF703FD064605E000BF2D
:100D0000FFF7FEFC801B0228C0D828688007F7D5B3
:100D10002868216920F0F80040EAC10028600DE051
:100D2000C8F800A0FFF7ECFC064604E0FFF7E8FC7B
:100D3000801B02281FD828688007F7D42078000776
:100D400022D5864F87486169703771B101210160F2
:100D5000FFF7D6FC064604E0FFF7D2FC801B022812
:100D600009D838688007F7D50EE0C0F800A0FFF773
:100D7000C7FC064605E082E0FFF7C2FC801B0228A4
:100D80007DD838688007F7D42078400768D5DFF829
:100D9000CCB100270BF13C0BDBF80000C0000BD4FA
:100DA000DBF8001041F08051CBF80010DBF80000B8
:100DB000012700F0805000906B4E3068C00510D4C1
:100DC000306840F480703060FFF79AFC009005E0D6
:100DD000FFF796FC0099401A022850D83068C005E9
:100DE000F6D55E4EA0686C3601280FD00528306815
:100DF00010D020F001003060306820F00400306036
:100E0000A068B8B1FFF77CFC00900FE0306840F0BC
:100E10000100F4E740F004003060F7E7FFF770FCF2
:100E20000099411A41F28830814266D830688007C3
:100E3000F4D50EE0FFF764FC009007E0FFF760FCDC
:100E40000099411A41F28830814256D830688007B3
:100E5000F4D42FB1DBF8001021F08051CBF8001052
:100E6000A069C8B33D49091D0968C1F38101022980
:100E70004AD00228504607D0C8F8600000E03CE0A5
:100E8000FFF73EFC04463BE04746C8F86000FFF72A
:100E900037FC064605E000BFFFF732FC801B022846
:100EA0002BD828688001F7D4D4E907010843A16A48
:100EB0002E4A490802EB0141626A41EA8211084365
:100EC00094F82C1040EA0161C9F80010012038663E
:100ED000FFF716FC044606E03EE000BFFFF710FCFB
:100EE000001B022809D828688001F7D534E000BF2C
:100EF000FFF706FC001B022802D90320BDE8F88F8B
:100F000028688001F4D427E00128F7D0D9F8000040
:100F1000E26900F4800191421CD1226A00F03F0195
:100F2000914217D147F6C071626A0140B1EB821F4E
:100F300010D1A26A4FF0FF3300F4403103EB5202AC
:100F4000B1EB024F06D194F82C1000F07060B0EBBA
:100F5000016F01D00120D1E70020CFE70438024023
:100F600000004742800E4742007000400000FFFF33
:100F700070B5040009D0606A002540B12561656143
:100F8000A56294F8510040B10CE0012070BD60688A
:100F9000B0F5827FF4D0E561F2E784F85050204646
:100FA00000F044F8022084F851002068016821F024
:100FB00040010160A088218900F4827001F404419D
:100FC0000843A18901F400610843217C01F002017A
:100FD0000843217D01F001010843218B01F40071D8
:100FE0000843217F01F03801084394F8201001F0F4
:100FF00080010843218D01F40051084321680860F5
:10100000A069042101EA104094F8241001F01001B5
:101010000843216848602068C16921F40061C1610A
:101020006565012084F85100002070BD70B586B060
:10103000044614216846FFF797F9234E22680021E1
:101040002248022303240525B2421AD11F4A143232
:10105000166846F480561660126802F480520592B3
:10106000026842F001020260006802AA00F001007A
:10107000059082E83200A020CDE9000369461448BB
:101080001DE0144EB2421CD1104A1032166846F4CC
:1010900080461660126802F480420592026842F0AF
:1010A00002020260006802AA00F00200059082E8D5
:1010B00032004FF44440CDE9000369460648FFF78B
:1010C00021FA06B070BD0000003001403038024007
:1010D0000000024000380040000402404FF0E021D0
:1010E0000428086903D020F004000861704740F02C
:1010F0000400FAE710B5401EB0F1807F01D3012053
:1011000010BD4FF0E02460610F21601700F0A4FBD8
:101110000020A06107202061002010BD70477047AB
:10112000704770B50446006801694FF00005C94377
:10113000890715D4C168C943890711D4E91E016123
:1011400001202077206880698007204602D0FFF7C1
:10115000E7FF04E000F098F8204600F096F82577C5
:1011600020680169C943490717D4C168C9434907C1
:1011700013D46FF004010161022020772068806998
:1011800010F4407F204602D0FFF7CAFF04E000F0D1
:101190007BF8204600F079F8257720680169C9437B
:1011A000090716D4C168C943090712D46FF00801B2
:1011B0000161042020772068C0698007204602D0A2
:1011C000FFF7AEFF04E000F05FF8204600F05DF8A6
:1011D000257720680169C943C90617D4C168C94386
:1011E000C90613D46FF01001016108202077206830
:1011F000C06910F4407F204602D0FFF791FF04E061
:1012000000F042F8204600F040F825772068016998
:10121000C943C90708D1C168C943C90704D1891E98
:101220000161204600F032F820680169C9430906CF
:1012300009D4C168C943090605D46FF08001016172
:101240002046FFF76BFF20680169C943490609D4AE
:10125000C168C943490605D46FF0400101612046C9
:1012600000F022F820680169C94389060BD4C168DF
:10127000C943890607D46FF0200101612046BDE80B
:101280007040FFF74CBF70BD7047704704498842FB
:1012900004D14FF400510348FFF724BA704700000F
:1012A000280200200008024070477047704710F87D
:1012B0003D1F407808437047F8B501680446086848
:1012C000CA684B6910F00F0F4FF0000559D003F0BA
:1012D000010602F49077374365D0C10705D0D105E8
:1012E00003D5216C41F001012164410705D5D907DF
:1012F00003D0216C41F002012164810705D5D90793
:1013000003D0216C41F004012164010707D502F0EC
:101310002001314303D0216C41F008012164216C8C
:1013200000293AD0800604D5900602D5204600F068
:101330002EFB20684069216CC0F38010090700D49F
:1013400060B3204600F0FCFA20684069400621D5D1
:101350002068143050E8001F21F0400140E80012DE
:10136000002AF5D1A06BA8B16C490165A06BFFF70D
:10137000A4F8002811D0A06B016D01B0BDE8F040C9
:10138000084783060FD593060DD52046BDE8F840E3
:1013900000F0FDBA2046FFF789FFF8BD2046FFF7B1
:1013A00085FF2564F8BD266B2023012E79D1C60662
:1013B00077D5D60675D50868486800904869400614
:1013C00040D5A16B086840680004000CEAD0A28DEB
:1013D0008242E7D9E085C869B0F5807F2DD02068CA
:1013E0000C3050E8001F21F4807140E80012002A00
:1013F000F5D12068143050E8001F21F0010140E8C9
:101400000012002AF5D12068143050E8001F21F0A6
:10141000400140E80012002AF5D184F83E302563EF
:1014200020680C3050E8001F21F0100140E8001245
:10143000002AF5D1A06BFEF7F7FFA08DE18D401AD1
:1014400081B229E0A08DE18D401A81B2E08D0028A3
:10145000A8D00029A6D020680C3050E8002F22F434
:10146000907240E80026002EF5D12068143050E834
:10147000002F22F0010240E80026002EF5D184F86A
:101480003E30256320680C3050E8002F22F0100217
:1014900040E80023002BF5D12046FFF706FFF8BDFA
:1014A000FFE705062BD5150629D594F83D00212820
:1014B000F5D1A068B0F5805F01D12069B0B1206A94
:1014C000411C2162216800784860E08C401E0004C5
:1014D000000CE084E3D12068C16821F08001C16084
:1014E0002068C16841F04001C160D8E7206A0088E7
:1014F000C0F308004860206A801C2062E5E74006CF
:10150000CDD55006CBD5CA68204622F04002CA602D
:1015100084F83D3000F0B0F8C1E700003119000850
:1015200070B5040004D094F83D00002510B106E029
:10153000012070BD84F83C50204600F023F82420A0
:1015400084F83D002068C16821F40051C160204644
:1015500000F07EFA2068016921F490410161206861
:10156000416921F02A0141612068C16841F40051BC
:10157000C1602564202084F83D0084F83E000020EE
:1015800070BD000000B50068174987B0884229D1B6
:101590001648016841F010010160006800F0100079
:1015A000059012481438016841F00101016000689B
:1015B000694600F0010005904FF4C06000900220E1
:1015C0000190012002900320039007200490084816
:1015D000FEF798FF2520FFF7EBF90322114625209F
:1015E000FFF7F2F907B000BD001001404438024097
:1015F0000000024090F83E30202B0ED159B152B17C
:1016000090F83C30012B08D0012380F83C300023B7
:10161000036300F0A3BA0120704702207047000066
:1016200030B50068114988420CD1114841880A043C
:1016300008D402464C0412784FF0000306D50A2A5B
:1016400001D0438030BD41F400410DE00D2A09D0A6
:10165000C1F30D04074D491C89B22A554180C729A1
:10166000EFD830BD41F48041418030BD00100140D1
:1016700014000020180000207047FEE770B586B007
:1016800014216846FEF770FE15480024016841F0F9
:1016900004010160016801F004010591016841F055
:1016A000010101600068012200F001000D4E5503A8
:1016B000059029463046FFF71DF800950125CDE934
:1016C0000154694630460394FEF71CFFCDE90054EF
:1016D000694605480295FEF715FF06B070BD00008B
:1016E0003038024000080240000002400948084922
:1016F0004FF4804201600849416000218160C0E9E7
:10170000031241618161C1610162FEF7FFBF000008
:101710000054004024010020801A060030B587B034
:1017200014216846FEF720FE18480024016841F0A5
:10173000010101600068164D00F00100059022468D
:1017400058212846FEF7D6FF582000900120CDE909
:101750000104694628460394FEF7D4FE0E480D495D
:1017600001604FF48271C0E90114C460691504611D
:10177000C0E905412821C0E907140A214462C0E9F3
:101780000A41FFF7F5FB07B030BD000030380240DA
:1017900000000240003001407801002030B587B0E1
:1017A00014216846FEF7E0FD18480024016841F066
:1017B000020101600068164D00F00200059022460B
:1017C00004212846FEF796FF042000900120CDE971
:1017D0000104694628460394FEF794FE0E480D491D
:1017E00001604FF48271C0E90114C460691504619D
:1017F000C0E905411021C0E907140A214462C0E98B
:101800000A41FFF7B5FB07B030BD00003038024099
:101810000004024000380040D00100200B4910B500
:10182000094AC1E9002000208860C8600861886119
:101830000C2048610846FFF773FEBDE81040012206
:1018400003490248FFF7D6BE00100140E000002027
:1018500014000020FEE7FEE70907090E002806DA5B
:1018600000F00F0000F1E02080F8141D704700F137
:10187000E02080F8001470477047704710B50446A8
:101880000420FFF72BFC0148046010BD100000206D
:10189000FFF734B830B593B030216846FEF764FDE9
:1018A00014210CA8FEF760FD18480025016841F0DE
:1018B00080510160006800F0805011901448016868
:1018C00041F4404101600068022400F4404011905E
:1018D00001200090000401908001CDE906400C2019
:1018E00008906020CDE9090404200B906846FFF7BA
:1018F00089F90CA90F2081E83100E002CDE90F053C
:1019000003210CA8FFF792F813B030BD4038024015
:10191000007000400248016841F4700101607047A6
:1019200088ED00E00148FFF7FCBB00002802002022
:1019300010B5806B0021C185C184FFF7B7FC10BDD5
:1019400001680C3151E8002F22F4907241E8002325
:10195000002BF5D10168143151E8002F22F001026B
:1019600041E80023002BF5D1016B012909D1016861
:101970000C3151E8002F22F0100241E80023002B27
:10198000F5D1202180F83E1000210163704708B591
:1019900090F83E10222901D0022008BD82684FF441
:1019A00080539A4201D1016921B1816A9A421BD0C8
:1019B0004AB10AE00268816A5268C2F308020A80EA
:1019C000816A891C08E0026972B10268526802F0FB
:1019D0007F020A70816A491C8162C18D491E090417
:1019E000090CC18503D019E002685268F1E701686B
:1019F000CA6822F02002CA600168CA6822F48072B4
:101A0000CA6001684A6922F001024A61202180F817
:101A10003E10016B012903D0FFF702FE002008BD34
:101A20000021016301680C3151E8002F22F01002FF
:101A300041E80023002BF5D101680A68D20602D5DF
:101A40000A6849680091818DFFF72FFCE6E70000E6
:101A500070B5044600680169E26821F44051114301
:101A600001612169A068E269084361691143084383
:101A70002168CA6849F20C639A430243CA6020682D
:101A80004169A26921F440711143416131492068E3
:101A9000884202D03049884202D1FFF771F801E054
:101AA000FFF75EF8E2690023192164253226B2F5BA
:101AB000004F626828D0A0FB0101930F9200FEF74F
:101AC000DCFB0146B0FBF5F06FF01802504301EB70
:101AD000800006EB0010B0FBF5F000F0F002B1FB67
:101AE000F5F002EB0012B1FBF5F06FF0180358436C
:101AF00001EB800006EB0010B0FBF5F000F00F00EA
:101B000021681044886070BDA0FB010192185B4100
:101B1000FEF7B3FB0146B0FBF5F00201B1FBF5F0B7
:101B20006FF01803584301EB800006EBC000B0FBD8
:101B3000F5F000F0F80002EB4002B1FBF5F058437D
:101B400001EB800006EBC000B0FBF5F000F00700F1
:101B5000D6E7000000100140001401408162828538
:101B6000C28500210164222280F83E2080F83C10CA
:101B70000168CA6842F48072CA6001684A6942F02A
:101B800001024A610068C16841F02001C160002083
:101B90007047000010B50848FFF78EFB0648FFF7B6
:101BA00086FB2028FAD1012204490348FFF722FDD1
:101BB0000028F8D110BD0000E00000201400002033
:101BC000FEE77047FEF7A2FEFFF764FE6420FFF712
:101BD00055FEFFF753FDFFF789FDFFF79FFDFFF768
:101BE000DDFD4FF4E130FFF719FE064D4FF40054D0
:101BF0004FF4FA7621462846FEF774FD3046FEF78C
:101C00006FFCF7E7000802404FF04070E1EE100A69
:101C100070470000000000000000010203040607F6
:101C20000809000000000102030400004C1C000829
:101C30000000002018000000D4010008641C000807
:101C400018000020B8080000F00100080024F4008B
:101C50000100000010000000000000000000000073
:041C60000000000080
:040000050800019955
:00000001FF
